:100000000C9474000C949C000C949C000C949C0028
:100010000C949C000C949C000C949C000C949C00F0
:100020000C949C000C949C000C949C000C94620416
:100030000C949C000C949C000C949C000C949C00D0
:100040000C9418040C949C000C94E6030C94C003CC
:100050000C949C000C949C000C949C000C949C00B0
:100060000C949C000C949C00084AD73B3BCE016E3C
:1000700084BCBFFDC12F3D6C74319ABD56833DDAFF
:100080003D00C77F11BED9E4BB4C3E916BAAAABE0E
:10009000000000803F0000000000240027002A002C
:1000A00000000000250028002B00040404040404C0
:1000B0000404020202020202030303030303010217
:1000C00004081020408001020408102001020408E6
:1000D00010200000000800020100000304070000D7
:1000E000000000000000500811241FBECFEFD8E030
:1000F000DEBFCDBF11E0A0E0B1E0E0E5FAE102C073
:1001000005900D92AC32B107D9F722E0ACE2B1E034
:1001100001C01D92AC34B207E1F710E0C4E7D0E0B3
:1001200004C02197FE010E948908C337D107C9F78F
:100130000E9423050C94260D0C9400002FB7F89410
:100140008091A7019091A801A091A901B091AA0165
:100150002FBF8093B3019093B401A093B501B093E6
:10016000B601E091AB01F091AC010084F185E02D86
:100170008BEA91E0099597FF26C02FB7F8948091FC
:10018000A7019091A801A091A901B091AA012FBF48
:100190004091B3015091B4016091B5017091B601E5
:1001A000841B950BA60BB70B4091AF015091B0018A
:1001B0006091B1017091B20184179507A607B70746
:1001C00080F28FEF9FEF0895EBEAF1E0A089B1890B
:1001D00082E08C93A485B5851C92A685B7858FECAB
:1001E0008C93108EA489B58986E08C93A289B389FB
:1001F0008C9180618C93A289B3898C9188608C9357
:10020000A289B3898C9180688C930288F389E02D50
:1002100080818F7D80830895CF92DF92EF92FF924D
:100220000F931F93CF93DF936C017A018B01C0E092
:10023000D0E0CE15DF0589F0D8016D918D01D60192
:10024000ED91FC910190F081E02DC6010995892B7B
:1002500011F47E0102C02196ECCFC701DF91CF914E
:100260001F910F91FF90EF90DF90CF900895FC01C8
:10027000918D828D981761F0828DDF01A80FB11DDD
:100280005D968C91928D9F5F9F73928F90E0089501
:100290008FEF9FEF0895FC01918D828D981731F0BB
:1002A000828DE80FF11D858D90E008958FEF9FEF0F
:1002B0000895FC01918D228D892F90E0805C9F4FE5
:1002C000821B91098F73992708958BEA91E00E9410
:1002D000590121E0892B09F420E0822F0895FC01C7
:1002E000848DDF01A80FB11DA35ABF4F2C91848DBF
:1002F00090E001968F739927848FA689B7892C93F4
:10030000A089B1898C9180648C93938D848D98138E
:1003100006C00288F389E02D80818F7D8083089557
:10032000EF92FF920F931F93CF93DF93EC0181E045
:10033000888F9B8D8C8D981305C0E889F989808101
:1003400085FD24C0F62E0B8D10E00F5F1F4F0F733D
:100350001127E02E8C8DE8120CC00FB607FCFACFE7
:10036000E889F989808185FFF5CFCE010E946F0170
:10037000F1CF8B8DFE01E80FF11DE35AFF4FF082A4
:100380000B8FEA89FB898081806207C0EE89FF8933
:100390006083E889F98980818064808381E090E0CE
:1003A000DF91CF911F910F91FF90EF900895CF9320
:1003B000DF93EC01888D8823C9F0EA89FB8980816D
:1003C00085FD05C0A889B9898C9186FD0FC00FB63F
:1003D00007FCF5CF808185FFF2CFA889B9898C9180
:1003E00085FFEDCFCE010E946F01E7CFDF91CF9166
:1003F000089580E090E0892B29F00E946501811129
:100400000C940000089590E0FC01EE52FF4F3491EF
:10041000FC01E254FF4F2491FC01E655FF4FE491AB
:10042000EE2309F43BC0332339F1333091F038F433
:100430003130A9F0323001F584B58F7D12C03730EC
:1004400091F03830A1F03430B9F4809180008F7D84
:1004500003C0809180008F77809380000DC084B5A9
:100460008F7784BD09C08091B0008F7703C08091E1
:10047000B0008F7D8093B000F0E0EE0FFF1FE056DC
:10048000FF4FA591B4918FB7F894EC91611103C01F
:1004900020952E2301C02E2B2C938FBF08953FB79C
:1004A000F89480912E0190912F01A0913001B0918C
:1004B000310126B5A89B05C02F3F19F00196A11D5B
:1004C000B11D3FBFBA2FA92F982F8827820F911DEA
:1004D000A11DB11DBC01CD0142E0660F771F881F31
:1004E000991F4A95D1F708958F929F92AF92BF922C
:1004F000CF92DF92EF92FF926B017C010E944F023C
:100500004B015C01C114D104E104F104F1F00E943B
:100510004F02DC01CB0188199909AA09BB09883E61
:100520009340A105B10570F321E0C21AD108E1089A
:10053000F10888EE880E83E0981EA11CB11CC1143E
:10054000D104E104F10419F7DDCFFF90EF90DF90C3
:10055000CF90BF90AF909F908F900895CF92DF92F1
:10056000EF92FF92CF93DF93EC01603282E0780745
:100570000CF03DC077FD06C0653B71052CF064EBC7
:1005800070E002C060E070E0898128E830E0690135
:10059000C81AD10887FDD394CC0CDD1CCC0CDD1C13
:1005A0000D2C000CEE08FF088A8128E532E0281B9C
:1005B000310987FD3395220F331F220F331FC901E5
:1005C000330FAA0BBB0B9C01AD012C193D094E0941
:1005D0005F09DB010E940F0D24EB30E040E050E0AA
:1005E0000E94E50CC20ED31EE41EF51EB6018881E2
:1005F0008C3080F5998148E850E0491B510997FDFE
:100600005395440F551F440F551F6417750784F009
:100610009A8128E532E0291B310997FD3395220F95
:10062000331F220F331FAB01261737070CF4A90124
:1006300042505109440F551F2FB7F89490E0FC0128
:10064000EE0FFF1F8E0F9F1FFC01E559FE4F5283D7
:1006500041832FBFDF91CF91FF90EF90DF90CF903C
:100660000895CF93DF93DC018C918C3008F06DC03E
:100670009B013327F901E254FF4F8491F901E655BC
:10068000FF4F2491222399F030E0220F331FF9010C
:10069000EA56FF4FC591D491F901E056FF4F2591DD
:1006A00034919FB7F894E881E82BE8839FBF8C9141
:1006B000E82FF0E09F01220F331FE20FF31FE559EF
:1006C000FE4F6F739081907C692B608311961C9212
:1006D000119712961C9212976CE00E947D089CE084
:1006E000899FB001112440E050E09A01260F371F86
:1006F000F901EE0FFF1F2E0F3F1FF901E559FE4FC5
:10070000908196FD16C04F5F5F4F4C30510569F7E1
:1007100081110FC01092800082E0809381001092BE
:10072000850010928400B19A80916F00826080935E
:100730006F00EC91F0E0CF01880F991FE80FF91FCF
:10074000E559FE4F8081806480838C91DF91CF9149
:1007500008950E949A0B6115710579F0FB010190D3
:100760000020E9F73197AF01461B570BDC01ED91F3
:10077000FC910280F381E02D099480E090E00895DF
:100780001F920F920FB60F9211242F933F934F9306
:100790005F936F937F938F939F93AF93BF93EF93E9
:1007A000FF938BEA91E00E946F01FF91EF91BF915F
:1007B000AF919F918F917F916F915F914F913F91F9
:1007C0002F910F900FBE0F901F9018951F920F92B0
:1007D0000FB60F9211242F938F939F93EF93FF9354
:1007E000E091BB01F091BC018081E091C101F091E9
:1007F000C20182FD12C090818091C4018F5F8F730E
:100800002091C501821751F0E091C401F0E0E55557
:10081000FE4F958F8093C40101C08081FF91EF91BD
:100820009F918F912F910F900FBE0F901F90189551
:100830001F920F920FB60F9211242F933F938F9315
:100840009F93AF93BF938091A7019091A801A0912E
:10085000A901B091AA0130912D0123E0230F2D377A
:1008600020F40196A11DB11D05C026E8230F0296B4
:10087000A11DB11D20932D018093A7019093A80184
:10088000A093A901B093AA0180912E0190912F010C
:10089000A0913001B09131010196A11DB11D80934D
:1008A0002E0190932F01A0933001B0933101BF919D
:1008B000AF919F918F913F912F910F900FBE0F900D
:1008C0001F9018951F920F920FB60F9211242F931D
:1008D0003F934F935F936F937F938F939F93AF93C8
:1008E000BF93EF93FF9380912C0187FF05C0109277
:1008F0008500109284001BC020912C01022E000C58
:10090000330B8091320190E02817390784F48091ED
:100910002C01082E000C990BFC01EE0FFF1F8E0F0F
:100920009F1FFC01E559FE4F808186FD15C0809117
:100930002C018F5F80932C0120912C01022E000C42
:10094000330B8091320190E028173907C4F480916D
:100950002C018C3064F113C080912C01082E000C06
:10096000990BFC01EE0FFF1F8E0F9F1FFC01E55935
:10097000FE4F808160E08F730E940302D8CF809188
:10098000840090918500049680349C4918F480E49A
:100990009CE905C080918400909185000496909315
:1009A0008900809388008FEF80932C013BC02091B9
:1009B00084003091850080912C01082E000C990B49
:1009C000FC01EE0FFF1F8E0F9F1FFC01E559FE4F2C
:1009D00081819281820F931F909389008093880078
:1009E00080912C01082E000C990BFC01EE0FFF1FCB
:1009F0008E0F9F1FFC01E559FE4F808186FF12C0BC
:100A000080912C01082E000C990BFC01EE0FFF1FAA
:100A10008E0F9F1FFC01E559FE4F808161E08F73AF
:100A20000E940302FF91EF91BF91AF919F918F912F
:100A30007F916F915F914F913F912F910F900FBEDA
:100A40000F901F901895CF93DF93CDB7DEB7A19786
:100A50000FB6F894DEBF0FBECDBF789484B5826028
:100A600084BD84B5816084BD85B5826085BD85B552
:100A7000816085BD80916E00816080936E001092D0
:100A8000810080918100826080938100809181004B
:100A900081608093810080918000816080938000DC
:100AA0008091B10084608093B1008091B00081603A
:100AB0008093B00080917A00846080937A00809166
:100AC0007A00826080937A0080917A0081608093BE
:100AD0007A0080917A00806880937A001092C10039
:100AE00010926701109268011092690110926A01D8
:100AF0001092350110923601109237011092380190
:100B000060ED77E080E090E00E9474028BEA91E073
:100B100090936601809365010E94E4002FB7F894DA
:100B20008091A7019091A801A091A901B091AA017B
:100B30002FBF8093350190933601A0933701B09376
:100B400038016AE171E080916501909166010E942F
:100B5000AB036AE070E080E090E00E94740281E004
:100B6000809339010E94E40083E090E00E946D0AC6
:100B7000209132012C30A0F431E0320F3093320159
:100B8000FC01208330E0F901EE0FFF1F2E0F3F1F05
:100B9000F901E559FE4F28EB3BE03283218303C086
:100BA0002FEFFC01208390939A018093990169E0D3
:100BB00070E00E94310383E090E00E946D0A8C0196
:100BC000209132012C30A0F481E0820F8093320119
:100BD000F801208330E0F901EE0FFF1F2E0F3F1FB9
:100BE000F901E559FE4F88EB9BE09283818303C0B6
:100BF0008FEFF801808310939801009397016AE0CA
:100C000070E0C8010E943103109293011092940188
:100C1000109295011092960110928F0110929001FE
:100C2000109291011092920110929B0110929C01DE
:100C300010929D0110929E0180E090E0A0E8BFE339
:100C400080939F019093A001A093A101B093A20172
:100C500080E090E0A0EFB2E48093A3019093A40120
:100C6000A093A501B093A60168E770E0C8010E94B7
:100C7000AE02EAE04E2E512C612C712C8BEA91E0F1
:100C80000E945901892B99F18BEA91E00E9437016A
:100C90008C3369F50BE911E00E949E00FC0197FD81
:100CA00017C08D32910509F486C1C0970A9708F4E0
:100CB00082C1EE32F10509F47EC1E091AB01F09101
:100CC000AC010680F781E02D8BEA91E00995E4CF35
:100CD00060E070E0CB01F80161937193819391938F
:100CE0008F01F1E0033A1F0709F431C1D5CF80909D
:100CF0009F019090A001A090A101B090A201C0908E
:100D00009B01D0909C01E0909D01F0909E0168E7CE
:100D100070E080919701909198010E94AE0200913D
:100D2000990110919A012091930130919401409181
:100D3000950150919601C701B6010E948F086B0181
:100D40007C0120918F01309190014091910150914F
:100D50009201C501B4010E948F084B015C0120E0A3
:100D600030E0A901C701B6010E945C0A18160CF018
:100D7000F1C0A7019601C501B4010E942B090E9490
:100D8000FC0820EE3EE245E652E40E94050C6B01B1
:100D90007C0120E030E044E353E40E945C0A181632
:100DA00074F4A701960160E070E084EB93E40E9484
:100DB0008F086B017C01F7FAF094F7F8F09420E0CB
:100DC00030E0A901C701B6010E945C0A18160CF4B4
:100DD000D0C0C701B601905820E030E044EB53E4A6
:100DE0000E94DE0920E030E048EC51E40E948F08C8
:100DF0006B017C0120E030E040EA50E40E949F0B50
:100E000087FDBAC020E030E04FE253E4C701B601ED
:100E10000E945C0A18160CF4B2C0C701B6010E9409
:100E20009D09C8010E94AE0260E971E080E090E097
:100E30000E947402F801828128E532E06901C81A33
:100E4000D10887FDD394CC0CDD1CCC0CDD1C0D2C03
:100E5000000CEE08FF08818128E830E04901881A7B
:100E6000910887FD9394880C991C880C991C092C77
:100E7000000CAA08BB0880818F3F09F483C090E072
:100E8000FC01EE0FFF1F8E0F9F1FFC01E559FE4F67
:100E90002181328143E0220F331F4A95E1F754E06C
:100EA000369527955A95E1F72E5F3F4F2F5F3F4FBD
:100EB000C901330FAA0BBB0B9C01AD0128193909DD
:100EC0004A095B09A4EBB0E00E94040DA70196015A
:100ED000281939094A095B090E94E50CC90149969C
:100EE0006C01092E000CEE08FF0897FF4EC0E09140
:100EF000AB01F091AC010190F081E02D6DE28BEA45
:100F000091E0099522273327A9012C193D094E09A3
:100F10005F0919A28E010F5D1F4FCA01B901A3011C
:100F200092010E94C30C605DF80162938F0121154C
:100F300031054105510589F7B8018BEA91E00E941E
:100F4000AB0369E271E08BEA91E00E94AB030E947F
:100F5000F90194CEA7019601C501B4010E942B09A5
:100F60000E94FC082BED3FE049E450E40E94900809
:100F700008CFC701B60130CF65E070E052CF6FEA0D
:100F800070E04FCF20E030E091CFA701960119A289
:100F90008E010F5D1F4FCA01B901A30192010E948A
:100FA000C30C605DF80162938F0121153105410585
:100FB000510589F7C1CF812C912C80E8A82E8FE3B1
:100FC000B82EC12CD12C7601212C312CE130F10529
:100FD00079F1ED32F10539F1EE32F10539F1CF0158
:100FE000C0970A9728F5AAE0B0E0A70196010E94F1
:100FF000040D6F01FF0FEE08FF08C60ED71EE81E96
:10100000F91EF0E3CF1AD108E108F108222081F09F
:101010002DEC3CEC4CEC5DE3C501B4010E94050CE9
:101020004B015C0105C03324339402C02224239475
:10103000E091AB01F091AC010680F781E02D8BEAE5
:1010400091E009950E949E00FC01C0970A9708F460
:10105000BDCFEE32F10519F421101FC0B7CFE1303A
:10106000F10509F4B3CF332041F0F094E094D0942B
:10107000C094C11CD11CE11CF11C222049F0C70105
:10108000B6010E94A60BA50194010E94050C23CE77
:10109000C701B6010E94A60B1ECE3110E6CFEFCFDE
:1010A000EBEAF1E01382128288EE93E0A0E0B0E078
:1010B00084839583A683B7838EE091E091838083B8
:1010C00085EC90E09587848784EC90E0978786870D
:1010D00080EC90E0918B808B81EC90E0938B828B05
:1010E00082EC90E0958B848B86EC90E0978B868BDE
:1010F000118E128E138E148E0895991B79E004C000
:10110000991F961708F0961B881F7A95C9F7809546
:101110000895EE0FFF1F0590F491E02D09945058AB
:10112000BB27AA270E94A7080C94890C0E947B0C5D
:1011300038F00E94820C20F039F49F3F19F426F415
:101140000C94780C0EF4E095E7FB0C94720CE92FEC
:101150000E949A0C58F3BA17620773078407950721
:1011600020F079F4A6F50C94BC0C0EF4E0950B2E4F
:10117000BA2FA02D0B01B90190010C01CA01A001E9
:101180001124FF27591B99F0593F50F4503E68F144
:101190001A16F040A22F232F342F4427585FF3CF85
:1011A000469537952795A795F0405395C9F77EF456
:1011B0001F16BA0B620B730B840BBAF09150A1F09F
:1011C000FF0FBB1F661F771F881FC2F70EC0BA0F25
:1011D000621F731F841F48F4879577956795B795AD
:1011E000F7959E3F08F0B0CF9395880F08F09927A8
:1011F000EE0F979587950895DF93DD27B92FBF7779
:1012000040E85FE31616170648075B0718F4D92F66
:101210000E94610A9F938F937F936F930E94690A44
:10122000E8E6F0E00E94350A0E94890C2F913F9178
:101230004F915F910E94180CDD2351F09058A2EA63
:101240002AED3FE049EC5FE3D0785D270E94A708D4
:10125000DF910C94890C0E943F090C94890C0E9428
:10126000820C58F00E947B0C40F029F45F3F29F07B
:101270000C94720C51110C94BD0C0C94780C0E94BF
:101280009A0C68F39923B1F3552391F3951B550BF1
:10129000BB27AA2762177307840738F09F5F5F4F49
:1012A000220F331F441FAA1FA9F335D00E2E3AF088
:1012B000E0E832D091505040E695001CCAF72BD0A0
:1012C000FE2F29D0660F771F881FBB1F26173707F1
:1012D0004807AB07B0E809F0BB0B802DBF01FF2723
:1012E00093585F4F3AF09E3F510578F00C94720C82
:1012F0000C94BD0C5F3FE4F3983ED4F3869577954C
:101300006795B795F7959F5FC9F7880F911D9695DB
:10131000879597F90895E1E0660F771F881FBB1F37
:10132000621773078407BA0720F0621B730B840BE4
:10133000BA0BEE1F88F7E09508950E94A4096894FF
:10134000B1110C94BD0C08950E94A20C88F09F5717
:1013500098F0B92F9927B751B0F0E1F0660F771FD9
:10136000881F991F1AF0BA95C9F714C0B13091F0CF
:101370000E94BC0CB1E008950C94BC0C672F782F30
:101380008827B85F39F0B93FCCF386957795679594
:10139000B395D9F73EF490958095709561957F4F00
:1013A0008F4F9F4F08950E947B0C20F019F00E94F0
:1013B000820C50F40C94780C0C94BD0CE92F0E9414
:1013C0009A0C88F35523B1F3E7FB62177307840780
:1013D0009507A8F189F3E92FFF2788232AF0319791
:1013E000660F771F881FDAF7952F5527442332F0B1
:1013F00091505040220F331F441FD2F7BB27E91BE7
:10140000F50B621B730B840BB109B1F222F4620F6E
:10141000731F841FB11D31972AF0660F771F881F35
:10142000BB1FEFCF9150504062F041F0882332F063
:10143000660F771F881F91505040C1F793950C9409
:10144000270A8695779567959F5FD9F7F7CF9F3FD6
:1014500031F0915020F4879577956795B795880F6F
:10146000911D9695879597F90895DF93CF931F93D4
:101470000F93FF92EF92DF927B018C01689406C07C
:10148000DA2EEF010E94180CFE01E894A591259137
:10149000359145915591A6F3EF010E94A708FE01F1
:1014A0009701A801DA9469F7DF90EF90FF900F9110
:1014B0001F91CF91DF9108950E94E10B08F48FEF07
:1014C00008959B01AC0160E070E080E89FE30C941C
:1014D0002B099B01AC010C94050CCF93DF93823058
:1014E000910510F482E090E0E0914A02F0914B0205
:1014F00020E030E0C0E0D0E0309711F14081518130
:1015000048175907C0F04817590761F48281938141
:10151000209719F09B838A832BC090934B02809372
:101520004A0226C02115310519F04217530718F455
:101530009A01BE01DF01EF010280F381E02DDCCFD3
:101540002115310509F1281B390B2430310590F4A0
:1015500012968D919C9113976115710521F0FB01F5
:101560009383828304C090934B0280934A02FD01CF
:10157000329644C0FD01E20FF31F819391932250F4
:1015800031092D933C933AC0209148023091490291
:10159000232B41F420910201309103013093490241
:1015A000209348022091000130910101211531055D
:1015B00041F42DB73EB74091040150910501241B21
:1015C000350BE0914802F0914902E217F307A0F4CD
:1015D0002E1B3F0B2817390778F0AC014E5F5F4F89
:1015E0002417350748F04E0F5F1F50934902409370
:1015F00048028193919302C0E0E0F0E0CF01DF91D7
:10160000CF9108950F931F93CF93DF93009709F421
:101610008CC0FC0132971382128200914A02109111
:101620004B020115110581F420813181820F931F36
:1016300020914802309149022817390779F5F09333
:101640004902E093480271C0D80140E050E0AE1773
:10165000BF0750F412962D913C911397AD012115BF
:10166000310509F1D901F3CF9D01DA0133832283DA
:1016700060817181860F971F8217930769F4EC01CF
:1016800028813981260F371F2E5F3F4F31832083FA
:101690008A819B8193838283452B29F4F0934B02AB
:1016A000E0934A0242C01396FC93EE931297ED0129
:1016B000499159919E01240F351FE217F30771F4E8
:1016C00080819181840F951F029611969C938E9331
:1016D0008281938113969C938E931297E0E0F0E0C1
:1016E000D80112968D919C911397009719F0F801EB
:1016F0008C01F6CF8D919C9198012E5F3F4F820F08
:10170000931F20914802309149022817390769F444
:10171000309729F410924B0210924A0202C01382B1
:1017200012821093490200934802DF91CF911F91DA
:101730000F91089581E090E0F8940C94260D0E949A
:10174000E10B08F481E00895E89409C097FB3EF4AA
:1017500090958095709561957F4F8F4F9F4F9923FE
:10176000A9F0F92F96E9BB279395F695879577957C
:101770006795B795F111F8CFFAF4BB0F11F460FF3C
:101780001BC06F5F7F4F8F4F9F4F16C0882311F094
:1017900096E911C0772321F09EE8872F762F05C0A8
:1017A000662371F096E8862F70E060E02AF09A9543
:1017B000660F771F881FDAF7880F9695879597F938
:1017C0000895990F0008550FAA0BE0E8FEEF1616D2
:1017D0001706E807F907C0F012161306E407F50725
:1017E00098F0621B730B840B950B39F40A2661F099
:1017F000232B242B252B21F408950A2609F4A1403C
:10180000A6958FEF811D811D08950E94180C0C94E0
:10181000890C0E947B0C38F00E94820C20F09523EA
:1018200011F00C94720C0C94780C11240C94BD0CD7
:101830000E949A0C70F3959FC1F3950F50E0551FCD
:10184000629FF001729FBB27F00DB11D639FAA2715
:10185000F00DB11DAA1F649F6627B00DA11D661F64
:10186000829F2227B00DA11D621F739FB00DA11D85
:10187000621F839FA00D611D221F749F3327A00D3F
:10188000611D231F849F600D211D822F762F6A2FDB
:1018900011249F5750409AF0F1F088234AF0EE0F40
:1018A000FF1FBB1F661F771F881F91505040A9F76D
:1018B0009E3F510580F00C94720C0C94BD0C5F3F60
:1018C000E4F3983ED4F3869577956795B795F795A9
:1018D000E7959F5FC1F7FE2B880F911D9695879521
:1018E00097F9089597F99F6780E870E060E00895A0
:1018F0009FEF80EC089500240A9416161706180628
:101900000906089500240A94121613061406050603
:101910000895092E0394000C11F4882352F0BB0F94
:1019200040F4BF2B11F460FF04C06F5F7F4F8F4FF7
:101930009F4F089557FD9058440F551F59F05F3F32
:1019400071F04795880F97FB991F61F09F3F79F0E1
:1019500087950895121613061406551FF2CF469563
:10196000F1DF08C0161617061806991FF1CF8695E5
:101970007105610508940895E894BB2766277727C9
:10198000CB0197F90895A1E21A2EAA1BBB1BFD01FA
:101990000DC0AA1FBB1FEE1FFF1FA217B307E4074E
:1019A000F50720F0A21BB30BE40BF50B661F771FA6
:1019B000881F991F1A9469F7609570958095909586
:1019C0009B01AC01BD01CF010895052E97FB1EF4CC
:1019D00000940E94FC0C57FD07D00E94C30C07FC2A
:1019E00003D04EF40C94FC0C509540953095219505
:1019F0003F4F4F4F5F4F089590958095709561953B
:101A00007F4F8F4F9F4F08950E94170DA59F900DF8
:101A1000B49F900DA49F800D911D11240895B7FFD0
:101A20000C94040D0E94040D821B930B0895A29F39
:101A3000B001B39FC001A39F700D811D1124911DA2
:101A4000B29F700D811D1124911D0895F894FFCF50
:101A500000004C0280000100000000000000900126
:101A60000C01590137014B01D701564D4450565FC7
:0C1A7000317C315F564D4450560D0A0089
:00000001FF
